:100000000C9430010C94E3040C94BC040C9458013F
:100010000C9458010C9458010C9458010C945801FC
:100020000C9458010C9458010C94A9050C94530697
:100030000C9462050C9458010C9458010C945801CE
:100040000C9472040C9458010C9430050C940A051D
:100050000C9458010C9458010C9458010C945801BC
:100060000C9458010C945801000000002300260055
:10007000290000000008000201000003040700003E
:100080000000000000000000000000000000000070
:100090000000000960000000000000713100000055
:1000A0007A7361773200006378646534330000202E
:1000B000766674723500006E6268677936000000FB
:1000C0006D6A75373800002C6B696F303900002E6F
:1000D0002F6C3B702D00000027005B3D00000000EE
:1000E0000D5D005C00000000000000007F0000319A
:1000F000003437000000302E323536381B00002B1C
:10010000332D2A390000000000000000000000002C
:100110000000000000000000000000097E00000058
:1001200000000051210000005A5341574000004395
:100130005844452423000020564654522500004EC2
:10014000424847595E0000004D4A55262A00003CAF
:100150004B494F292800003E3F4C3A505F000000B9
:1001600022007B2B000000000D7D007C00000000C1
:10017000000000007F000031003437000000302E06
:10018000323536381B00002B332D2A390000000091
:10019000000000000000000000000000000000005F
:1001A000000000000000000000000000000000004F
:1001B000000000000000000000000000000000003F
:1001C000000000000000000000000000000000002F
:1001D000000000000000000000000000000000001F
:1001E000000000000000000000000000000000000F
:1001F00000000000000000000000000000000000FF
:1002000000000000000000000000000000000000EE
:1002100000000000000000000000000000000000DE
:10022000000000250028002B00000000002400270B
:10023000002A00040404040404040402020202026A
:10024000020303030303030102040810204080019A
:10025000020408102001020408102000E906D50855
:1002600011241FBECFEFD8E0DEBFCDBF11E0A0E06C
:10027000B1E0ECE0F2E102C005900D92AE36B107BC
:10028000D9F723E0AEE6B1E001C01D92A130B2077C
:10029000E1F711E0CFE2D1E004C02197FE010E9416
:1002A000F308CE32D107C9F70E9422070C94F9084F
:1002B0000C940000833081F028F4813099F0823072
:1002C000A9F008958730A9F08830C9F08430B1F4DE
:1002D000809180008F7D03C0809180008F77809314
:1002E0008000089584B58F7784BD089584B58F7D8F
:1002F000FBCF8091B0008F778093B00008958091FC
:10030000B0008F7DF9CFCF93DF9390E0FC01E95BE4
:10031000FD4F24918D5C9D4FFC0184918823D1F089
:1003200090E0880F991FFC01E75DFD4FA591B49106
:10033000FC01E15EFD4FC591D491623071F49FB72D
:10034000F8943C91822F809583238C93E8812E2B07
:1003500028839FBFDF91CF9108958FB7F894EC91D8
:100360002E2B2C938FBFF6CF3FB7F8948091540279
:1003700090915502A0915602B091570226B5A89BC4
:1003800005C02F3F19F00196A11DB11D3FBFBA2F27
:10039000A92F982F8827BC01CD01620F711D811DE7
:1003A000911D42E0660F771F881F991F4A95D1F76C
:1003B00008950895AF92BF92CF92DF92EF92FF928D
:1003C0000F931F93CF93DF936C017B018B01040F7D
:1003D000151FEB015E01AE18BF08C017D10759F019
:1003E0006991D601ED91FC910190F081E02DC6015B
:1003F0000995892B79F7C501DF91CF911F910F9155
:10040000FF90EF90DF90CF90BF90AF900895FC01E8
:10041000538D448D252F30E0842F90E0821B930B69
:10042000541710F0CF96089501970895FC01918D0F
:10043000828D981761F0A28DAE0FBF2FB11D5D9612
:100440008C91928D9F5F9F73928F90E008958FEFB4
:100450009FEF0895FC01918D828D981731F0828D68
:10046000E80FF11D858D90E008958FEF9FEF0895BF
:10047000FC01918D228D892F90E0805C9F4F821B23
:1004800091098F739927089588E592E00E943802B8
:1004900021E0892B09F420E0822F089580E090E08C
:1004A000892B29F00E94440281110C9400000895C8
:1004B000FC01A48DA80FB92FB11DA35ABF4F2C91D9
:1004C000848D90E001968F739927848FA689B789D0
:1004D0002C93A089B1898C91837080648C93938DC7
:1004E000848D981306C00288F389E02D80818F7D6A
:1004F00080830895EF92FF920F931F93CF93DF9322
:10050000EC0181E0888F9B8D8C8D98131AC0E8894F
:10051000F989808185FF15C09FB7F894EE89FF891E
:100520006083E889F98980818370806480839FBFBC
:1005300081E090E0DF91CF911F910F91FF90EF90BC
:100540000895F62E0B8D10E00F5F1F4F0F731127CC
:10055000E02E8C8D8E110CC00FB607FCFACFE88907
:10056000F989808185FFF5CFCE010E945802F1CF35
:10057000EB8DEC0FFD2FF11DE35AFF4FF0829FB77B
:10058000F8940B8FEA89FB8980818062CFCF682F36
:1005900088E592E00C947A02CF93DF93EC01888D8A
:1005A0008823B9F0AA89BB89E889F9898C9185FDEE
:1005B00003C0808186FD0DC00FB607FCF7CF8C917C
:1005C00085FFF2CF808185FFEDCFCE010E945802DA
:1005D000E9CFDF91CF910895CF9320913E023091E2
:1005E0003F02B90168577F4FA9014F5E5E4F90915E
:1005F0003B02D901A05FBE4F80913C02E0913D02D9
:100600008E1305C090933B0280E0CF9108958F5FD9
:100610008D3208F080E0E82FF0E0E25FFD4FE081EE
:1006200080933C02EE2371F3E03F11F49160E4CF3C
:10063000E03E11F49260E0CF90FF0FC0E23119F478
:100640009B7F9C7FD9CFE93511F4977FFACFE131B9
:10065000C1F791FFF6CF9F7EF4CFE23111F49460A1
:10066000CBCFE93511F49860C7CFE13111F491FD9A
:100670009061C92FCC7F91FF10C0EA54E43310F091
:100680009C2FBACFF0E0EC5FFE4F80819C2F882337
:1006900009F4B2CFC0933B02B8CF94FF0AC08C914B
:1006A000882339F0E83860F7E40FF52FF11D8491C5
:1006B000EDCF9C7031F0E83818F7E60FF72FF11DF9
:1006C000F6CFE838E8F6E20FF32FF11DF0CFCF9226
:1006D000DF92EF92FF920F931F93CF93DF932091BE
:1006E000400230E0F901EE58FF4F8491F901E95BD7
:1006F000FD4FD491F901ED5CFD4FC491CC2309F479
:1007000071C081110E945A01EC2FF0E0EE0FFF1F23
:10071000E859FF4FA591B491EC91ED2331E009F434
:1007200030E0832F2FB7F89440915002509151023E
:1007300060915202709153022FBF00910A021091F2
:100740000B0220910C0230910D026A017B01C01A4C
:10075000D10AE20AF30A970186010B3F1105210530
:10076000310520F0109209021092080240930A020B
:1007700050930B0260930C0270930D0220910902BA
:100780003FEF320F383048F401C0880F3A95EAF74E
:1007900090910802892B809308022F5F2093090211
:1007A0002B30B9F480913D028F5F8D3208F080E0EC
:1007B00090913C02981749F0E82FF0E090910802E0
:1007C000E25FFD4F908380933D02109209021092E8
:1007D0000802DF91CF911F910F91FF90EF90DF9072
:1007E000CF90089580E09ECF509145024091440201
:1007F000852F90E0242F30E0541718F0821B930BC4
:100800000895805B9F4FFACF80914502E0914402AA
:100810008E1751F0EF5FE03508F0E0E0F0E0E854CB
:10082000FE4F808190E008958FEF9FEF08958091B3
:10083000450290914402891769F09F5F903508F056
:1008400090E0E92FF0E0E854FE4F8081909344025D
:1008500090E008958FEF9FEF0895909142029F5F7F
:10086000943408F090E0209141022917E1F32FB76A
:10087000F89430914302332349F0E92FF0E0E25934
:10088000FE4F8083909342022FBF089591E0909392
:1008900043028093B3011092B20182E086BB809143
:1008A0006F00826080936F00809180008F7B8068F2
:1008B0008093800080918400909185004096909371
:1008C000890080938800E0CF809143028111FCCFA2
:1008D0000895862F0E942D0481E090E0089590E015
:1008E00080E008951F920F920FB60F9211242F935C
:1008F0003F938F939F93AF93BF93809150029091BA
:100900005102A0915202B091530230914F0223E064
:10091000230F2D3758F50196A11DB11D20934F02CD
:100920008093500290935102A0935202B0935302CD
:100930008091540290915502A0915602B0915702B5
:100940000196A11DB11D8093540290935502A0936E
:100950005602B0935702BF91AF919F918F913F91F3
:100960002F910F900FBE0F901F90189526E8230F20
:100970000296A11DB11DD2CF1F920F920FB60F92FA
:1009800011242F933F934F935F936F937F938F9394
:100990009F93AF93BF93EF93FF93E0910201F09188
:1009A00003010995FF91EF91BF91AF919F918F91B5
:1009B0007F916F915F914F913F912F910F900FBE5B
:1009C0000F901F9018951F920F920FB60F9211243F
:1009D0002F933F934F935F936F937F938F939F9347
:1009E000AF93BF93EF93FF93E0910001F09101016A
:1009F0000995FF91EF91BF91AF919F918F917F9159
:100A00006F915F914F913F912F910F900FBE0F907B
:100A10001F9018951F920F920FB60F9211242F93CB
:100A20003F934F935F936F937F938F939F93AF9376
:100A3000BF93EF93FF9388E592E00E945802FF91E5
:100A4000EF91BF91AF919F918F917F916F915F9146
:100A50004F913F912F910F900FBE0F901F901895BF
:100A60001F920F920FB60F9211242F938F939F9383
:100A7000EF93FF93E0916802F09169028081E09129
:100A80006E02F0916F0282FD1BC090818091710215
:100A90008F5F8F7320917202821741F0E091710293
:100AA000F0E0E85AFD4F958F80937102FF91EF912E
:100AB0009F918F912F910F900FBE0F901F901895BF
:100AC0008081F4CF1F920F920FB60F9211242F93B3
:100AD0008F939F93EF93FF9380916F008B7F809311
:100AE0006F00809181008F7B80938100809146020E
:100AF0002091B70120589091B601893020F4969545
:100B0000922B8F5FFACF9093B601809145028F5F51
:100B1000803508F080E020914402281739F0E82F52
:100B2000F0E0E854FE4F9083809345021092460215
:100B3000809181008F7B809381001092B701FF919B
:100B4000EF919F918F912F910F900FBE0F901F905B
:100B500018951F920F920FB60F9211242F933F9367
:100B60004F935F936F937F938F939F93AF93BF93B5
:100B7000EF93FF9380918600909187004091B70199
:100B8000209181004423F1F12F7B2093810010926A
:100B9000B7013091460231113CC0411122C0209171
:100BA000470230914802280F391F30938B00209361
:100BB0008A0024E026BB20916F00246020936F0000
:100BC0002091490230914A02820F931F3695279552
:100BD000280F391F3093B5012093B40181E0809331
:100BE0004602FF91EF91BF91AF919F918F917F91BD
:100BF0006F915F914F913F912F910F900FBE0F908A
:100C00001F90189520642093810020E82093B7015D
:100C1000C0CF4091B4015091B501609149027091EB
:100C20004A02DB01A095B0952091B601E091B70191
:100C3000841B950BA817B90768F126952E2B460F34
:100C4000571F3F5F861B970B3930A0F32093B601E7
:100C500080916F008B7F80936F00809145028F5F42
:100C6000803508F080E090914402981749F0E82F11
:100C7000F0E09091B601E854FE4F908380934502D6
:100C8000809181008F7B809381001092B701109238
:100C90004602A7CF2093B6015093B5014093B4010B
:100CA000309346029ECF1F920F920FB60F921124DF
:100CB0002F933F934F935F936F937F938F939F9364
:100CC000EF93FF93209143026091B30180918800DC
:100CD000909189004091490250914A023091B201AD
:100CE0002A3070F5840F951F762F7170293009F422
:100CF00071E066952F5F371799F330918000772365
:100D0000E1F0306C309380009093890080938800EC
:100D10007093B2016093B30120934302FF91EF916E
:100D20009F918F917F916F915F914F913F912F9103
:100D30000F900FBE0F901F9018953F7B3068E2CF49
:100D400030914202E09141023E1319C02A3051F421
:100D50002BE020934302840F951F9093890080938A
:100D60008800DCCF10924302809180008F738093C3
:100D7000800080916F008D7F80936F00CFCFEF5FF9
:100D8000E43408F0E0E0E0934102F0E0E259FE4F85
:100D900030813093B3011092B201309180003F7BDB
:100DA0003068309380002A3071F4209149023091EC
:100DB0004A02820F931F909389008093880081E0FC
:100DC00080934302ABCF8091840090918500409640
:100DD000F2CFE8E5F2E01382128288EE93E0A0E021
:100DE000B0E084839583A683B7832CE331E031831D
:100DF000208325EC30E03587248724EC30E03787EA
:100E0000268720EC30E0318B208B21EC30E0338BD7
:100E1000228B22EC30E0358B248B26EC30E0378BB4
:100E2000268B118E128E138E148EE5EFF2E0138254
:100E3000128284839583A683B7838EE491E09183A5
:100E400080830895789484B5826084BD84B5816080
:100E500084BD85B5826085BD85B5816085BD809185
:100E60006E00816080936E001092810080918100FD
:100E700082608093810080918100816080938100F5
:100E8000809180008160809380008091B1008460B7
:100E90008093B1008091B00081608093B000809118
:100EA0007A00846080937A0080917A0082608093D7
:100EB0007A0080917A00816080937A0080917A0034
:100EC000806880937A001092C1000E94B4014B01A7
:100ED0005C0198EEC92E93E0D92EE12CF12C0E94F2
:100EE000B401681979098A099B09683E7340810534
:100EF0009105A8F321E0C21AD108E108F10888EEB3
:100F0000880E83E0981EA11CB11CC114D104E10419
:100F1000F10429F784E08093400286E890E0909302
:100F20003F0280933E0262E083E00E94830162E020
:100F300084E00E94830110923D0210923C0287E6F9
:100F400093E0909303018093020180916900837F75
:100F5000886080936900E99AE0916802F0916902E3
:100F600082E08083E0916402F09165021082E0915A
:100F70006602F091670287E6808310927002E0912A
:100F80006C02F0916D0286E08083E0916A02F0913C
:100F90006B02808180618083E0916A02F0916B0234
:100FA000808188608083E0916A02F0916B02808189
:100FB00080688083E0916A02F0916B0280818F7D6E
:100FC000808310926F001092800081E880938100EE
:100FD00081E493E090934A028093490289E19EE183
:100FE000909348028093470262E088E00E94830168
:100FF000EBE7F0E08491E0E5F2E0D491ECE3F2E09D
:10100000C491CC2389F081110E945A01EC2FF0E0A9
:10101000EE0FFF1FE15EFD4FA591B4918FB7F894DD
:10102000EC91ED2BEC938FBF61E089E00E9483018E
:10103000109246021092450210924402109243020E
:10104000109242021092410280E286BB80936F00B0
:101050008BE190E00E94C70280E490E00E94C7020A
:101060004EE050E06CE571E088E592E00E94DA0124
:1010700042E050E06BE671E088E592E00E94DA0120
:10108000C0E0D0E011E085EF92E00E94F403181672
:1010900019066CF585EF92E00E9417048B319105DB
:1010A00011F410934E0220914E02211171C00E9442
:1010B000C70210924D0280914B02882359F1809112
:1010C0004C0281113CC080914B02882309F440C03E
:1010D00010924B0287FF3FC0982F9F7390689093A8
:1010E0004C028295869586958370806C2AC080918B
:1010F0004D028111E0CF10934D028BE190E00E94F0
:10110000C7028AE490E00E94C70290E080E00E945B
:10111000C702D1CF80914C028111D1CF0E94EC0245
:1011200080934B028111CBCF209709F4ACCF0E9462
:101130004402882309F4A7CF0E940000A4CF109294
:101140004C02282F8D3061F48AE00E942D04ECCFF0
:101150000E94EC02BFCF8111F4CF8FEF9FEFF1CF50
:10116000893011F489E0F1CF893111F08B3041F4ED
:101170008BE10E942D048AE40E942D0480E1E5CFDA
:101180002F7E2A3011F78BE10E942D048AE6F4CFDE
:101190009C012C5631092230310520F0883691050A
:1011A00009F089CF10924E0286CF8EE491E09093A1
:1011B000F6028093F50280916F008B7F80936F0021
:1011C00080916F008F7D80936F00809144028093A7
:1011D0004502809143028111FCCF80916F008D7F89
:1011E00080936F000895EE0FFF1F0590F491E02D9E
:1011F000099411E0CFE2D1E004C0FE010E94F3089F
:0C1200002196C033D107C9F7F894FFCF46
:10120C00D901D9012F0000000000000000000000EF
:10121C00000000000D0000000000000000000000B5
:10122C0000000000000800000000007F0A00150B01
:10123C00000000001A000019000000007A02DA0118
:10124C000702CC02380216022A02000000006904D0
:10125C00DA016F046404F403170404044B65796227
:0E126C006F61726420546573743A000D0A00BD
:00000001FF
