:100000000C9430010C94E3040C94BC040C9458013F
:100010000C9458010C9458010C9458010C945801FC
:100020000C9458010C9458010C94A9050C94530697
:100030000C9462050C9458010C9458010C945801CE
:100040000C9472040C9458010C9430050C940A051D
:100050000C9458010C9458010C9458010C945801BC
:100060000C9458010C945801000000002300260055
:10007000290000000008000201000003040700003E
:100080000000000000000000000000000000000070
:100090000000000960000000000000713100000055
:1000A0007A7361773200006378646534330000202E
:1000B000766674723500006E6268677936000000FB
:1000C0006D6A75373800002C6B696F303900002E6F
:1000D0002F6C3B702D00000027005B3D00000000EE
:1000E0000D5D005C00000000000000007F0000319A
:1000F000003437000000302E323536381B00002B1C
:10010000332D2A390000000000000000000000002C
:100110000000000000000000000000097E00000058
:1001200000000051210000005A5341574000004395
:100130005844452423000020564654522500004EC2
:10014000424847595E0000004D4A55262A00003CAF
:100150004B494F292800003E3F4C3A505F000000B9
:1001600022007B2B000000000D7D007C00000000C1
:10017000000000007F000031003437000000302E06
:10018000323536381B00002B332D2A390000000091
:10019000000000000000000000000000000000005F
:1001A000000000000000000000000000000000004F
:1001B000000000000000000000000000000000003F
:1001C000000000000000000000000000000000002F
:1001D000000000000000000000000000000000001F
:1001E000000000000000000000000000000000000F
:1001F00000000000000000000000000000000000FF
:1002000000000000000000000000000000000000EE
:1002100000000000000000000000000000000000DE
:10022000000000250028002B00000000002400270B
:10023000002A00040404040404040402020202026A
:10024000020303030303030102040810204080019A
:10025000020408102001020408102000E906F40836
:1002600011241FBECFEFD8E0DEBFCDBF11E0A0E06C
:10027000B1E0EAE4F2E102C005900D92AC35B107BD
:10028000D9F722E0ACE5B1E001C01D92AF3EB20764
:10029000E1F711E0CFE2D1E004C02197FE010E9416
:1002A0001209CE32D107C9F70E9422070C9418090F
:1002B0000C940000833081F028F4813099F0823072
:1002C000A9F008958730A9F08830C9F08430B1F4DE
:1002D000809180008F7D03C0809180008F77809314
:1002E0008000089584B58F7784BD089584B58F7D8F
:1002F000FBCF8091B0008F778093B00008958091FC
:10030000B0008F7DF9CFCF93DF9390E0FC01E95BE4
:10031000FD4F24918D5C9D4FFC0184918823D1F089
:1003200090E0880F991FFC01E75DFD4FA591B49106
:10033000FC01E15EFD4FC591D491623071F49FB72D
:10034000F8943C91822F809583238C93E8812E2B07
:1003500028839FBFDF91CF9108958FB7F894EC91D8
:100360002E2B2C938FBFF6CF3FB7F894809142028B
:1003700090914302A0914402B091450226B5A89BFA
:1003800005C02F3F19F00196A11DB11D3FBFBA2F27
:10039000A92F982F8827BC01CD01620F711D811DE7
:1003A000911D42E0660F771F881F991F4A95D1F76C
:1003B00008950895AF92BF92CF92DF92EF92FF928D
:1003C0000F931F93CF93DF936C017B018B01040F7D
:1003D000151FEB015E01AE18BF08C017D10759F019
:1003E0006991D601ED91FC910190F081E02DC6015B
:1003F0000995892B79F7C501DF91CF911F910F9155
:10040000FF90EF90DF90CF90BF90AF900895FC01E8
:10041000538D448D252F30E0842F90E0821B930B69
:10042000541710F0CF96089501970895FC01918D0F
:10043000828D981761F0A28DAE0FBF2FB11D5D9612
:100440008C91928D9F5F9F73928F90E008958FEFB4
:100450009FEF0895FC01918D828D981731F0828D68
:10046000E80FF11D858D90E008958FEF9FEF0895BF
:10047000FC01918D228D892F90E0805C9F4F821B23
:1004800091098F739927089586E492E00E943802BB
:1004900021E0892B09F420E0822F089580E090E08C
:1004A000892B29F00E94440281110C9400000895C8
:1004B000FC01A48DA80FB92FB11DA35ABF4F2C91D9
:1004C000848D90E001968F739927848FA689B789D0
:1004D0002C93A089B1898C91837080648C93938DC7
:1004E000848D981306C00288F389E02D80818F7D6A
:1004F00080830895EF92FF920F931F93CF93DF9322
:10050000EC0181E0888F9B8D8C8D98131AC0E8894F
:10051000F989808185FF15C09FB7F894EE89FF891E
:100520006083E889F98980818370806480839FBFBC
:1005300081E090E0DF91CF911F910F91FF90EF90BC
:100540000895F62E0B8D10E00F5F1F4F0F731127CC
:10055000E02E8C8D8E110CC00FB607FCFACFE88907
:10056000F989808185FFF5CFCE010E945802F1CF35
:10057000EB8DEC0FFD2FF11DE35AFF4FF0829FB77B
:10058000F8940B8FEA89FB8980818062CFCF682F36
:1005900086E492E00C947A02CF93DF93EC01888D8D
:1005A0008823B9F0AA89BB89E889F9898C9185FDEE
:1005B00003C0808186FD0DC00FB607FCF7CF8C917C
:1005C00085FFF2CF808185FFEDCFCE010E945802DA
:1005D000E9CFDF91CF910895CF9320912C023091F4
:1005E0002D02B90168577F4FA9014F5E5E4F909170
:1005F0002902D901A05FBE4F80912A02E0912B020F
:100600008E1305C09093290280E0CF9108958F5FEB
:100610008D3208F080E0E82FF0E0E450FE4FE081FA
:1006200080932A02EE2371F3E03F11F49160E4CF4E
:10063000E03E11F49260E0CF90FF0FC0E23119F478
:100640009B7F9C7FD9CFE93511F4977FFACFE131B9
:10065000C1F791FFF6CF9F7EF4CFE23111F49460A1
:10066000CBCFE93511F49860C7CFE13111F491FD9A
:100670009061C92FCC7F91FF10C0EA54E43310F091
:100680009C2FBACFF0E0EC5FFE4F80819C2F882337
:1006900009F4B2CFC0932902B8CF94FF0AC08C915D
:1006A000882339F0E83860F7E40FF52FF11D8491C5
:1006B000EDCF9C7031F0E83818F7E60FF72FF11DF9
:1006C000F6CFE838E8F6E20FF32FF11DF0CFCF9226
:1006D000DF92EF92FF920F931F93CF93DF932091BE
:1006E0002E0230E0F901EE58FF4F8491F901E95BE9
:1006F000FD4FD491F901ED5CFD4FC491CC2309F479
:1007000071C081110E945A01EC2FF0E0EE0FFF1F23
:10071000E859FF4FA591B491EC91ED2331E009F434
:1007200030E0832F2FB7F89440913E0250913F0262
:1007300060914002709141022FBF0091F801109129
:10074000F9012091FA013091FB016A017B01C01A85
:10075000D10AE20AF30A970186010B3F1105210530
:10076000310520F01092F7011092F6014093F80144
:100770005093F9016093FA017093FB012091F70106
:100780003FEF320F383048F401C0880F3A95EAF74E
:100790009091F601892B8093F6012F5F2093F7014A
:1007A0002B30B9F480912B028F5F8D3208F080E0FE
:1007B00090912A02981749F0E82FF0E09091F60105
:1007C000E450FE4F908380932B021092F701109219
:1007D000F601DF91CF911F910F91FF90EF90DF9085
:1007E000CF90089580E09ECF509133024091320225
:1007F000852F90E0242F30E0541718F0821B930BC4
:100800000895805B9F4FFACF80913302E0913202CE
:100810008E1751F0EF5FE03508F0E0E0F0E0EA55C8
:10082000FE4F808190E008958FEF9FEF08958091B3
:10083000330290913202891769F09F5F903508F07A
:1008400090E0E92FF0E0EA55FE4F8081909332026C
:1008500090E008958FEF9FEF0895909130029F5F91
:10086000943408F090E020912F022917E1F32FB77C
:10087000F89430913102332349F0E92FF0E0E45A43
:10088000FE4F8083909330022FBF089591E09093A4
:1008900031028093A1011092A00182E086BB809179
:1008A0006F00826080936F00809180008F7B8068F2
:1008B0008093800080918400909185004096909371
:1008C000890080938800E0CF809131028111FCCFB4
:1008D0000895862F0E942D0481E090E0089590E015
:1008E00080E008951F920F920FB60F9211242F935C
:1008F0003F938F939F93AF93BF9380913E029091CC
:100900003F02A0914002B091410230913D0223E0AC
:10091000230F2D3758F50196A11DB11D20933D02DF
:1009200080933E0290933F02A0934002B093410215
:100930008091420290914302A0914402B0914502FD
:100940000196A11DB11D8093420290934302A09392
:100950004402B0934502BF91AF919F918F913F9117
:100960002F910F900FBE0F901F90189526E8230F20
:100970000296A11DB11DD2CF1F920F920FB60F92FA
:1009800011242F933F934F935F936F937F938F9394
:100990009F93AF93BF93EF93FF93E0910201F09188
:1009A00003010995FF91EF91BF91AF919F918F91B5
:1009B0007F916F915F914F913F912F910F900FBE5B
:1009C0000F901F9018951F920F920FB60F9211243F
:1009D0002F933F934F935F936F937F938F939F9347
:1009E000AF93BF93EF93FF93E0910001F09101016A
:1009F0000995FF91EF91BF91AF919F918F917F9159
:100A00006F915F914F913F912F910F900FBE0F907B
:100A10001F9018951F920F920FB60F9211242F93CB
:100A20003F934F935F936F937F938F939F93AF9376
:100A3000BF93EF93FF9386E492E00E945802FF91E8
:100A4000EF91BF91AF919F918F917F916F915F9146
:100A50004F913F912F910F900FBE0F901F901895BF
:100A60001F920F920FB60F9211242F938F939F9383
:100A7000EF93FF93E0915602F09157028081E0914D
:100A80005C02F0915D0282FD1BC0908180915F024B
:100A90008F5F8F7320916002821741F0E0915F02B7
:100AA000F0E0EA5BFD4F958F80935F02FF91EF913D
:100AB0009F918F912F910F900FBE0F901F901895BF
:100AC0008081F4CF1F920F920FB60F9211242F93B3
:100AD0008F939F93EF93FF9380916F008B7F809311
:100AE0006F00809181008F7B809381008091340220
:100AF0002091A50120589091A401893020F4969569
:100B0000922B8F5FFACF9093A401809133028F5F75
:100B1000803508F080E020913202281739F0E82F64
:100B2000F0E0EA55FE4F9083809333021092340236
:100B3000809181008F7B809381001092A501FF91AD
:100B4000EF919F918F912F910F900FBE0F901F905B
:100B500018951F920F920FB60F9211242F933F9367
:100B60004F935F936F937F938F939F93AF93BF93B5
:100B7000EF93FF9380918600909187004091A501AB
:100B8000209181004423F1F12F7B2093810010926A
:100B9000A5013091340231113CC0411122C0209195
:100BA000350230913602280F391F30938B00209385
:100BB0008A0024E026BB20916F00246020936F0000
:100BC0002091370230913802820F931F3695279576
:100BD000280F391F3093A3012093A20181E0809355
:100BE0003402FF91EF91BF91AF919F918F917F91CF
:100BF0006F915F914F913F912F910F900FBE0F908A
:100C00001F90189520642093810020E82093A5016F
:100C1000C0CF4091A2015091A30160913702709121
:100C20003802DB01A095B0952091A401E091A501C7
:100C3000841B950BA817B90768F126952E2B460F34
:100C4000571F3F5F861B970B3930A0F32093A401F9
:100C500080916F008B7F80936F00809133028F5F54
:100C6000803508F080E090913202981749F0E82F23
:100C7000F0E09091A401EA55FE4F908380933302F7
:100C8000809181008F7B809381001092A50110924A
:100C90003402A7CF2093A4015093A3014093A20153
:100CA000309334029ECF1F920F920FB60F921124F1
:100CB0002F933F934F935F936F937F938F939F9364
:100CC000EF93FF93209131026091A1018091880000
:100CD0009091890040913702509138023091A001E3
:100CE0002A3070F5840F951F762F7170293009F422
:100CF00071E066952F5F371799F330918000772365
:100D0000E1F0306C309380009093890080938800EC
:100D10007093A0016093A10120933102FF91EF91A4
:100D20009F918F917F916F915F914F913F912F9103
:100D30000F900FBE0F901F9018953F7B3068E2CF49
:100D400030913002E0912F023E1319C02A3051F445
:100D50002BE020933102840F951F9093890080939C
:100D60008800DCCF10923102809180008F738093D5
:100D7000800080916F008D7F80936F00CFCFEF5FF9
:100D8000E43408F0E0E0E0932F02F0E0E45AFE4F94
:100D900030813093A1011092A001309180003F7BFF
:100DA0003068309380002A3071F4209137023091FE
:100DB0003802820F931F909389008093880081E00E
:100DC00080933102ABCF8091840090918500409652
:100DD000F2CFE6E4F2E01382128288EE93E0A0E024
:100DE000B0E084839583A683B7832CE331E031831D
:100DF000208325EC30E03587248724EC30E03787EA
:100E0000268720EC30E0318B208B21EC30E0338BD7
:100E1000228B22EC30E0358B248B26EC30E0378BB4
:100E2000268B118E128E138E148EE3EEF2E0138257
:100E3000128284839583A683B7838EE491E09183A5
:100E400080830895789484B5826084BD84B5816080
:100E500084BD85B5826085BD85B5816085BD809185
:100E60006E00816080936E001092810080918100FD
:100E700082608093810080918100816080938100F5
:100E8000809180008160809380008091B1008460B7
:100E90008093B1008091B00081608093B000809118
:100EA0007A00846080937A0080917A0082608093D7
:100EB0007A0080917A00816080937A0080917A0034
:100EC000806880937A001092C1000E94B4014B01A7
:100ED0005C0198EEC92E93E0D92EE12CF12C0E94F2
:100EE000B401681979098A099B09683E7340810534
:100EF0009105A8F321E0C21AD108E108F10888EEB3
:100F0000880E83E0981EA11CB11CC114D104E10419
:100F1000F10429F784E080932E0286E890E0909314
:100F20002D0280932C0262E083E00E94830162E044
:100F300084E00E94830110922B0210922A0287E61D
:100F400093E0909303018093020180916900837F75
:100F5000886080936900E99AE0915602F091570207
:100F600082E08083E0915202F09153021082E0917E
:100F70005402F091550287E6808310925E02E09160
:100F80005A02F0915B0286E08083E0915802F09172
:100F90005902808180618083E0915802F09159026A
:100FA000808188608083E0915802F09159028081AD
:100FB00080688083E0915802F091590280818F7D92
:100FC000808310926F001092800081E880938100EE
:100FD00081E493E0909338028093370289E19EE1A7
:100FE000909336028093350262E088E00E9483018C
:100FF000EBE7F0E08491E0E5F2E0D491ECE3F2E09D
:10100000C491CC2389F081110E945A01EC2FF0E0A9
:10101000EE0FFF1FE15EFD4FA591B4918FB7F894DD
:10102000EC91ED2BEC938FBF61E089E00E9483018E
:101030001092340210923302109232021092310256
:101040001092300210922F0280E286BB80936F00D4
:101050008BE190E00E94C70280E490E00E94C7020A
:10106000C0E0D0E011E083EE92E00E94F403181695
:1010700019066CF583EE92E00E9417048B319105FE
:1010800011F410933C0220913C022111A0C00E9457
:10109000C70210923B0280913902882359F1809156
:1010A0003A0281113CC080913902882309F440C082
:1010B0001092390287FF3FC0982F9F7390689093DA
:1010C0003A028295869586958370806C2AC08091BD
:1010D0003B028111E0CF10933B028BE190E00E9434
:1010E000C7028AE490E00E94C70290E080E00E947C
:1010F000C702D1CF80913A028111D1CF0E94EC0278
:10110000809339028111CBCF209709F4ACCF0E9494
:101110004402882309F4A7CF0E940000A4CF1092B4
:101120003A02282F8D3061F48AE00E942D04ECCF22
:101130000E94EC02BFCF8111F4CF8FEF9FEFF1CF70
:10114000893011F489E0F1CF893111F08B3009F544
:101150008BE190E00E94C70284E290E00E94C70207
:1011600086E990E00E94C70281E090E00E94C702F9
:101170008EE290E00E94C7028BE190E00E94C702DD
:101180008AE490E00E94C70290E080E00E94C702DB
:10119000BBCF2F7E2A3049F68BE190E00E94C70238
:1011A0008AE690E00E94C70284EB90E00E94C702AA
:1011B0008BE190E00E94C7028AE690E00E94C7029D
:1011C00084EB90E00E94C70288E590E0DFCF9C01AD
:1011D0002C5631092230310520F08836910509F06E
:1011E0005ACF10923C0257CF8EE491E09093E402E4
:1011F0008093E30280916F008B7F80936F008091DA
:101200006F008F7D80936F00809132028093330254
:10121000809131028111FCCF80916F008D7F80938E
:101220006F000895EE0FFF1F0590F491E02D0994D3
:1012300011E0CFE2D1E004C0FE010E941209219624
:0A124000C033D107C9F7F894FFCFBF
:10124A00D901D9012F0000000000000000000000B1
:10125A00000000000D000000000000000000000077
:10126A0000000000000800000000007F0A00150BC3
:10127A00000000001A000019000000007A02DA01DA
:10128A000702CC02380216022A0200000000690492
:0C129A00DA016F046404F4031704040478
:00000001FF
